{
  "contractName": "Helper",
  "abi": [
    {
      "inputs": [
        {
          "internalType": "string",
          "name": "a",
          "type": "string"
        },
        {
          "internalType": "string",
          "name": "b",
          "type": "string"
        }
      ],
      "name": "concatenate",
      "outputs": [
        {
          "internalType": "string",
          "name": "",
          "type": "string"
        }
      ],
      "stateMutability": "pure",
      "type": "function",
      "constant": true
    }
  ],
  "bytecode": "0x6103ff610053600b82828239805160001a607314610046577f4e487b7100000000000000000000000000000000000000000000000000000000600052600060045260246000fd5b30600052607381538281f3fe73000000000000000000000000000000000000000030146080604052600436106100355760003560e01c8063266001d31461003a575b600080fd5b610054600480360381019061004f91906101f0565b61006a565b60405161006191906102f0565b60405180910390f35b6060828260405160200161007f92919061039a565b604051602081830303815290604052905092915050565b6000604051905090565b600080fd5b600080fd5b600080fd5b600080fd5b6000601f19601f8301169050919050565b7f4e487b7100000000000000000000000000000000000000000000000000000000600052604160045260246000fd5b6100fd826100b4565b810181811067ffffffffffffffff8211171561011c5761011b6100c5565b5b80604052505050565b600061012f610096565b905061013b82826100f4565b919050565b600067ffffffffffffffff82111561015b5761015a6100c5565b5b610164826100b4565b9050602081019050919050565b82818337600083830152505050565b600061019361018e84610140565b610125565b9050828152602081018484840111156101af576101ae6100af565b5b6101ba848285610171565b509392505050565b600082601f8301126101d7576101d66100aa565b5b81356101e7848260208601610180565b91505092915050565b60008060408385031215610207576102066100a0565b5b600083013567ffffffffffffffff811115610225576102246100a5565b5b610231858286016101c2565b925050602083013567ffffffffffffffff811115610252576102516100a5565b5b61025e858286016101c2565b9150509250929050565b600081519050919050565b600082825260208201905092915050565b60005b838110156102a2578082015181840152602081019050610287565b838111156102b1576000848401525b50505050565b60006102c282610268565b6102cc8185610273565b93506102dc818560208601610284565b6102e5816100b4565b840191505092915050565b6000602082019050818103600083015261030a81846102b7565b905092915050565b600081905092915050565b600061032882610268565b6103328185610312565b9350610342818560208601610284565b80840191505092915050565b7f2000000000000000000000000000000000000000000000000000000000000000600082015250565b6000610384600183610312565b915061038f8261034e565b600182019050919050565b60006103a6828561031d565b91506103b182610377565b91506103bd828461031d565b9150819050939250505056fea26469706673582212200a75cd1f8fa7b80891fd5839e4ed530c2550ea4b18cc1afc13bc8c784aa4038664736f6c634300080e0033",
  "immutableReferences": {},
  "source": "// SPDX-License-Identifier: MIT\r\npragma solidity ^0.8.7;\r\n\r\nlibrary Helper {\r\n    function concatenate(string memory a, string memory b)\r\n        public\r\n        pure\r\n        returns (string memory)\r\n    {\r\n        return string(abi.encodePacked(a, \" \", b));\r\n    }\r\n\r\n    function uintToStr(uint256 _i)\r\n        internal\r\n        pure\r\n        returns (string memory _uintAsString)\r\n    {\r\n        if (_i == 0) {\r\n            return \"0\";\r\n        }\r\n        uint256 j = _i;\r\n        uint256 len;\r\n        while (j != 0) {\r\n            len++;\r\n            j /= 10;\r\n        }\r\n        bytes memory bstr = new bytes(len);\r\n        uint256 k = len;\r\n        while (_i != 0) {\r\n            k = k - 1;\r\n            uint8 temp = (48 + uint8(_i - (_i / 10) * 10));\r\n            bytes1 b1 = bytes1(temp);\r\n            bstr[k] = b1;\r\n            _i /= 10;\r\n        }\r\n        return string(bstr);\r\n    }\r\n}\r\n",
  "sourcePath": "D:\\Workspace\\Solidity\\contracts\\easy-property\\back\\contracts\\HelperLibrary.sol",
  "compiler": {
    "name": "solc",
    "version": "0.8.14+commit.80d49f37.Emscripten.clang"
  },
  "schemaVersion": "3.4.4",
  "updatedAt": "2022-06-10T16:10:01.593Z",
  "networkType": "ethereum",
  "devdoc": {
    "kind": "dev",
    "methods": {},
    "version": 1
  },
  "userdoc": {
    "kind": "user",
    "methods": {},
    "version": 1
  }
}