{
  "contractName": "Property",
  "abi": [
    {
      "inputs": [
        {
          "internalType": "uint256",
          "name": "_price",
          "type": "uint256"
        },
        {
          "internalType": "string",
          "name": "_docName",
          "type": "string"
        },
        {
          "internalType": "string",
          "name": "_docUrl",
          "type": "string"
        },
        {
          "internalType": "string",
          "name": "_docDescription",
          "type": "string"
        },
        {
          "internalType": "address payable",
          "name": "_owner",
          "type": "address"
        },
        {
          "internalType": "address payable",
          "name": "_buyer",
          "type": "address"
        }
      ],
      "stateMutability": "nonpayable",
      "type": "constructor"
    },
    {
      "anonymous": false,
      "inputs": [
        {
          "indexed": false,
          "internalType": "address",
          "name": "payerAddress",
          "type": "address"
        },
        {
          "indexed": false,
          "internalType": "uint256",
          "name": "price",
          "type": "uint256"
        },
        {
          "indexed": false,
          "internalType": "uint256",
          "name": "gas",
          "type": "uint256"
        }
      ],
      "name": "newPayment",
      "type": "event"
    },
    {
      "inputs": [],
      "name": "getName",
      "outputs": [
        {
          "internalType": "string",
          "name": "name",
          "type": "string"
        }
      ],
      "stateMutability": "view",
      "type": "function"
    },
    {
      "inputs": [],
      "name": "getDescription",
      "outputs": [
        {
          "internalType": "string",
          "name": "description",
          "type": "string"
        }
      ],
      "stateMutability": "view",
      "type": "function"
    },
    {
      "inputs": [],
      "name": "getUrl",
      "outputs": [
        {
          "internalType": "string",
          "name": "url",
          "type": "string"
        }
      ],
      "stateMutability": "view",
      "type": "function"
    },
    {
      "inputs": [],
      "name": "getOwner",
      "outputs": [
        {
          "internalType": "address",
          "name": "ownerAddress",
          "type": "address"
        }
      ],
      "stateMutability": "view",
      "type": "function"
    },
    {
      "inputs": [],
      "name": "getBuyer",
      "outputs": [
        {
          "internalType": "address",
          "name": "buyerAddress",
          "type": "address"
        }
      ],
      "stateMutability": "view",
      "type": "function"
    },
    {
      "inputs": [],
      "name": "getPrice",
      "outputs": [
        {
          "internalType": "uint256",
          "name": "price",
          "type": "uint256"
        }
      ],
      "stateMutability": "view",
      "type": "function"
    },
    {
      "inputs": [],
      "name": "getDoc",
      "outputs": [
        {
          "components": [
            {
              "internalType": "uint256",
              "name": "price",
              "type": "uint256"
            },
            {
              "internalType": "string",
              "name": "name",
              "type": "string"
            },
            {
              "internalType": "string",
              "name": "url",
              "type": "string"
            },
            {
              "internalType": "string",
              "name": "description",
              "type": "string"
            },
            {
              "internalType": "address payable",
              "name": "owner",
              "type": "address"
            }
          ],
          "internalType": "struct Property.Doc",
          "name": "",
          "type": "tuple"
        }
      ],
      "stateMutability": "view",
      "type": "function"
    },
    {
      "inputs": [
        {
          "internalType": "string",
          "name": "a",
          "type": "string"
        },
        {
          "internalType": "string",
          "name": "b",
          "type": "string"
        }
      ],
      "name": "concatenate",
      "outputs": [
        {
          "internalType": "string",
          "name": "",
          "type": "string"
        }
      ],
      "stateMutability": "pure",
      "type": "function"
    },
    {
      "inputs": [],
      "name": "signAndPay",
      "outputs": [],
      "stateMutability": "payable",
      "type": "function"
    }
  ],
  "bytecode": "0x60806040523480156200001157600080fd5b5060405162001cb538038062001cb5833981810160405281019062000037919062000689565b600086116200007d576040517f08c379a00000000000000000000000000000000000000000000000000000000081526004016200007490620007e3565b60405180910390fd5b8073ffffffffffffffffffffffffffffffffffffffff168273ffffffffffffffffffffffffffffffffffffffff1603620000ee576040517f08c379a0000000000000000000000000000000000000000000000000000000008152600401620000e59062000855565b60405180910390fd5b6040518060a001604052808781526020018681526020018581526020018481526020018373ffffffffffffffffffffffffffffffffffffffff168152506003600082015181600001556020820151816001019080519060200190620001559291906200039c565b506040820151816002019080519060200190620001749291906200039c565b506060820151816003019080519060200190620001939291906200039c565b5060808201518160040160006101000a81548173ffffffffffffffffffffffffffffffffffffffff021916908373ffffffffffffffffffffffffffffffffffffffff160217905550905050806000806101000a81548173ffffffffffffffffffffffffffffffffffffffff021916908373ffffffffffffffffffffffffffffffffffffffff160217905550600160026000600360040160009054906101000a900473ffffffffffffffffffffffffffffffffffffffff1673ffffffffffffffffffffffffffffffffffffffff1673ffffffffffffffffffffffffffffffffffffffff16815260200190815260200160002060006101000a81548160ff0219169083151502179055506001600260008060009054906101000a900473ffffffffffffffffffffffffffffffffffffffff1673ffffffffffffffffffffffffffffffffffffffff1673ffffffffffffffffffffffffffffffffffffffff16815260200190815260200160002060006101000a81548160ff0219169083151502179055506001806000600360040160009054906101000a900473ffffffffffffffffffffffffffffffffffffffff1673ffffffffffffffffffffffffffffffffffffffff1673ffffffffffffffffffffffffffffffffffffffff16815260200190815260200160002060006101000a81548160ff021916908315150217905550505050505050620008db565b828054620003aa90620008a6565b90600052602060002090601f016020900481019282620003ce57600085556200041a565b82601f10620003e957805160ff19168380011785556200041a565b828001600101855582156200041a579182015b8281111562000419578251825591602001919060010190620003fc565b5b5090506200042991906200042d565b5090565b5b80821115620004485760008160009055506001016200042e565b5090565b6000604051905090565b600080fd5b600080fd5b6000819050919050565b620004758162000460565b81146200048157600080fd5b50565b60008151905062000495816200046a565b92915050565b600080fd5b600080fd5b6000601f19601f8301169050919050565b7f4e487b7100000000000000000000000000000000000000000000000000000000600052604160045260246000fd5b620004f082620004a5565b810181811067ffffffffffffffff82111715620005125762000511620004b6565b5b80604052505050565b6000620005276200044c565b9050620005358282620004e5565b919050565b600067ffffffffffffffff821115620005585762000557620004b6565b5b6200056382620004a5565b9050602081019050919050565b60005b838110156200059057808201518184015260208101905062000573565b83811115620005a0576000848401525b50505050565b6000620005bd620005b7846200053a565b6200051b565b905082815260208101848484011115620005dc57620005db620004a0565b5b620005e984828562000570565b509392505050565b600082601f8301126200060957620006086200049b565b5b81516200061b848260208601620005a6565b91505092915050565b600073ffffffffffffffffffffffffffffffffffffffff82169050919050565b6000620006518262000624565b9050919050565b620006638162000644565b81146200066f57600080fd5b50565b600081519050620006838162000658565b92915050565b60008060008060008060c08789031215620006a957620006a862000456565b5b6000620006b989828a0162000484565b965050602087015167ffffffffffffffff811115620006dd57620006dc6200045b565b5b620006eb89828a01620005f1565b955050604087015167ffffffffffffffff8111156200070f576200070e6200045b565b5b6200071d89828a01620005f1565b945050606087015167ffffffffffffffff8111156200074157620007406200045b565b5b6200074f89828a01620005f1565b93505060806200076289828a0162000672565b92505060a06200077589828a0162000672565b9150509295509295509295565b600082825260208201905092915050565b7f5072696365206d7573742062652067726561746572207468616e207a65726f2e600082015250565b6000620007cb60208362000782565b9150620007d88262000793565b602082019050919050565b60006020820190508181036000830152620007fe81620007bc565b9050919050565b7f546865206f776e65722063616e206e6f74206265207468652062757965720000600082015250565b60006200083d601e8362000782565b91506200084a8262000805565b602082019050919050565b6000602082019050818103600083015262000870816200082e565b9050919050565b7f4e487b7100000000000000000000000000000000000000000000000000000000600052602260045260246000fd5b60006002820490506001821680620008bf57607f821691505b602082108103620008d557620008d462000877565b5b50919050565b6113ca80620008eb6000396000f3fe6080604052600436106100865760003560e01c8063893d20e811610059578063893d20e81461014957806398d5fdca14610174578063c58458671461019f578063d6bd8727146101ca578063d8af8e34146101f557610086565b806317d7de7c1461008b5780631a092541146100b6578063266001d3146100e1578063603daf9a1461011e575b600080fd5b34801561009757600080fd5b506100a06101ff565b6040516100ad9190610bbf565b60405180910390f35b3480156100c257600080fd5b506100cb610294565b6040516100d89190610bbf565b60405180910390f35b3480156100ed57600080fd5b5061010860048036038101906101039190610d2a565b610328565b6040516101159190610bbf565b60405180910390f35b34801561012a57600080fd5b50610133610354565b6040516101409190610de3565b60405180910390f35b34801561015557600080fd5b5061015e61037d565b60405161016b9190610de3565b60405180910390f35b34801561018057600080fd5b506101896103aa565b6040516101969190610e17565b60405180910390f35b3480156101ab57600080fd5b506101b46103b7565b6040516101c19190610f30565b60405180910390f35b3480156101d657600080fd5b506101df6105e7565b6040516101ec9190610bbf565b60405180910390f35b6101fd61067c565b005b60606003600101805461021190610f81565b80601f016020809104026020016040519081016040528092919081815260200182805461023d90610f81565b801561028a5780601f1061025f5761010080835404028352916020019161028a565b820191906000526020600020905b81548152906001019060200180831161026d57829003601f168201915b5050505050905090565b60606003800180546102a590610f81565b80601f01602080910402602001604051908101604052809291908181526020018280546102d190610f81565b801561031e5780601f106102f35761010080835404028352916020019161031e565b820191906000526020600020905b81548152906001019060200180831161030157829003601f168201915b5050505050905090565b6060828260405160200161033d92919061103a565b604051602081830303815290604052905092915050565b60008060009054906101000a900473ffffffffffffffffffffffffffffffffffffffff16905090565b6000600360040160009054906101000a900473ffffffffffffffffffffffffffffffffffffffff16905090565b6000600360000154905090565b6103bf610ae1565b60036040518060a0016040529081600082015481526020016001820180546103e690610f81565b80601f016020809104026020016040519081016040528092919081815260200182805461041290610f81565b801561045f5780601f106104345761010080835404028352916020019161045f565b820191906000526020600020905b81548152906001019060200180831161044257829003601f168201915b5050505050815260200160028201805461047890610f81565b80601f01602080910402602001604051908101604052809291908181526020018280546104a490610f81565b80156104f15780601f106104c6576101008083540402835291602001916104f1565b820191906000526020600020905b8154815290600101906020018083116104d457829003601f168201915b5050505050815260200160038201805461050a90610f81565b80601f016020809104026020016040519081016040528092919081815260200182805461053690610f81565b80156105835780601f1061055857610100808354040283529160200191610583565b820191906000526020600020905b81548152906001019060200180831161056657829003601f168201915b505050505081526020016004820160009054906101000a900473ffffffffffffffffffffffffffffffffffffffff1673ffffffffffffffffffffffffffffffffffffffff1673ffffffffffffffffffffffffffffffffffffffff1681525050905090565b6060600360020180546105f990610f81565b80601f016020809104026020016040519081016040528092919081815260200182805461062590610f81565b80156106725780601f1061064757610100808354040283529160200191610672565b820191906000526020600020905b81548152906001019060200180831161065557829003601f168201915b5050505050905090565b7f3d3a7037b3034605b3221caf38a32984eea10a17fd8da02a16a15a99c25c123033345a6040516106af93929190611069565b60405180910390a1600260003373ffffffffffffffffffffffffffffffffffffffff1673ffffffffffffffffffffffffffffffffffffffff16815260200190815260200160002060009054906101000a900460ff16610743576040517f08c379a000000000000000000000000000000000000000000000000000000000815260040161073a906110ec565b60405180910390fd5b600160003373ffffffffffffffffffffffffffffffffffffffff1673ffffffffffffffffffffffffffffffffffffffff16815260200190815260200160002060009054906101000a900460ff16156107d0576040517f08c379a00000000000000000000000000000000000000000000000000000000081526004016107c790611158565b60405180910390fd5b6003600001543414610802604051806080016040528060448152602001611351604491396107fd34610912565b610328565b90610843576040517f08c379a000000000000000000000000000000000000000000000000000000000815260040161083a9190610bbf565b60405180910390fd5b5060018060003373ffffffffffffffffffffffffffffffffffffffff1673ffffffffffffffffffffffffffffffffffffffff16815260200190815260200160002060006101000a81548160ff021916908315150217905550600360040160009054906101000a900473ffffffffffffffffffffffffffffffffffffffff1673ffffffffffffffffffffffffffffffffffffffff166108fc349081150290604051600060405180830381858888f19350505050158015610906573d6000803e3d6000fd5b5061091033610a9a565b565b606060008203610959576040518060400160405280600181526020017f30000000000000000000000000000000000000000000000000000000000000008152509050610a95565b600082905060005b6000821461098b578080610974906111a7565b915050600a82610984919061121e565b9150610961565b60008167ffffffffffffffff8111156109a7576109a6610bff565b5b6040519080825280601f01601f1916602001820160405280156109d95781602001600182028036833780820191505090505b50905060008290505b60008614610a8d576001816109f7919061124f565b90506000600a8088610a09919061121e565b610a139190611283565b87610a1e919061124f565b6030610a2a91906112ea565b905060008160f81b905080848481518110610a4857610a47611321565b5b60200101907effffffffffffffffffffffffffffffffffffffffffffffffffffffffffffff1916908160001a905350600a88610a84919061121e565b975050506109e2565b819450505050505b919050565b80600360040160006101000a81548173ffffffffffffffffffffffffffffffffffffffff021916908373ffffffffffffffffffffffffffffffffffffffff16021790555050565b6040518060a0016040528060008152602001606081526020016060815260200160608152602001600073ffffffffffffffffffffffffffffffffffffffff1681525090565b600081519050919050565b600082825260208201905092915050565b60005b83811015610b60578082015181840152602081019050610b45565b83811115610b6f576000848401525b50505050565b6000601f19601f8301169050919050565b6000610b9182610b26565b610b9b8185610b31565b9350610bab818560208601610b42565b610bb481610b75565b840191505092915050565b60006020820190508181036000830152610bd98184610b86565b905092915050565b6000604051905090565b600080fd5b600080fd5b600080fd5b600080fd5b7f4e487b7100000000000000000000000000000000000000000000000000000000600052604160045260246000fd5b610c3782610b75565b810181811067ffffffffffffffff82111715610c5657610c55610bff565b5b80604052505050565b6000610c69610be1565b9050610c758282610c2e565b919050565b600067ffffffffffffffff821115610c9557610c94610bff565b5b610c9e82610b75565b9050602081019050919050565b82818337600083830152505050565b6000610ccd610cc884610c7a565b610c5f565b905082815260208101848484011115610ce957610ce8610bfa565b5b610cf4848285610cab565b509392505050565b600082601f830112610d1157610d10610bf5565b5b8135610d21848260208601610cba565b91505092915050565b60008060408385031215610d4157610d40610beb565b5b600083013567ffffffffffffffff811115610d5f57610d5e610bf0565b5b610d6b85828601610cfc565b925050602083013567ffffffffffffffff811115610d8c57610d8b610bf0565b5b610d9885828601610cfc565b9150509250929050565b600073ffffffffffffffffffffffffffffffffffffffff82169050919050565b6000610dcd82610da2565b9050919050565b610ddd81610dc2565b82525050565b6000602082019050610df86000830184610dd4565b92915050565b6000819050919050565b610e1181610dfe565b82525050565b6000602082019050610e2c6000830184610e08565b92915050565b610e3b81610dfe565b82525050565b600082825260208201905092915050565b6000610e5d82610b26565b610e678185610e41565b9350610e77818560208601610b42565b610e8081610b75565b840191505092915050565b6000610e9682610da2565b9050919050565b610ea681610e8b565b82525050565b600060a083016000830151610ec46000860182610e32565b5060208301518482036020860152610edc8282610e52565b91505060408301518482036040860152610ef68282610e52565b91505060608301518482036060860152610f108282610e52565b9150506080830151610f256080860182610e9d565b508091505092915050565b60006020820190508181036000830152610f4a8184610eac565b905092915050565b7f4e487b7100000000000000000000000000000000000000000000000000000000600052602260045260246000fd5b60006002820490506001821680610f9957607f821691505b602082108103610fac57610fab610f52565b5b50919050565b600081905092915050565b6000610fc882610b26565b610fd28185610fb2565b9350610fe2818560208601610b42565b80840191505092915050565b7f2000000000000000000000000000000000000000000000000000000000000000600082015250565b6000611024600183610fb2565b915061102f82610fee565b600182019050919050565b60006110468285610fbd565b915061105182611017565b915061105d8284610fbd565b91508190509392505050565b600060608201905061107e6000830186610dd4565b61108b6020830185610e08565b6110986040830184610e08565b949350505050565b7f596f7520617265206e6f742061207369676e61746f72792e0000000000000000600082015250565b60006110d6601883610b31565b91506110e1826110a0565b602082019050919050565b60006020820190508181036000830152611105816110c9565b9050919050565b7f596f75206861766520616c7265616479207369676e65642e0000000000000000600082015250565b6000611142601883610b31565b915061114d8261110c565b602082019050919050565b6000602082019050818103600083015261117181611135565b9050919050565b7f4e487b7100000000000000000000000000000000000000000000000000000000600052601160045260246000fd5b60006111b282610dfe565b91507fffffffffffffffffffffffffffffffffffffffffffffffffffffffffffffffff82036111e4576111e3611178565b5b600182019050919050565b7f4e487b7100000000000000000000000000000000000000000000000000000000600052601260045260246000fd5b600061122982610dfe565b915061123483610dfe565b925082611244576112436111ef565b5b828204905092915050565b600061125a82610dfe565b915061126583610dfe565b92508282101561127857611277611178565b5b828203905092915050565b600061128e82610dfe565b915061129983610dfe565b9250817fffffffffffffffffffffffffffffffffffffffffffffffffffffffffffffffff04831182151516156112d2576112d1611178565b5b828202905092915050565b600060ff82169050919050565b60006112f5826112dd565b9150611300836112dd565b92508260ff0382111561131657611315611178565b5b828201905092915050565b7f4e487b7100000000000000000000000000000000000000000000000000000000600052603260045260246000fdfe496e636f727265637420616d6f756e742c20706c656173652073656e64207468652065786163742076616c756520666f72207468652070726f7065727479207072696365a26469706673582212205049f36e116c03b79149444dd58ac1591ca3190af6a2619393799656a8314c4064736f6c634300080e0033",
  "immutableReferences": {},
  "source": "// SPDX-License-Identifier: MIT\r\npragma solidity ^0.8.7;\r\n\r\ncontract TransferPropertyFactory {\r\n    address[] public propertyTransfers;\r\n    address public lastPropertyTransferAddress;\r\n\r\n    event newPropertyTransferContract(address contractAddress);\r\n\r\n    constructor() {}\r\n\r\n    // Get the total of deployed contracts\r\n    function getPropertyTransfersCount()\r\n        public\r\n        view\r\n        returns (uint256 contractCount)\r\n    {\r\n        return propertyTransfers.length;\r\n    }\r\n\r\n    // Tell me a position and I will tell you its address\r\n    function getPropertyTransfer(uint256 pos)\r\n        public\r\n        view\r\n        returns (address contractAddress)\r\n    {\r\n        return address(propertyTransfers[pos]);\r\n    }\r\n\r\n    // Deploy a new property transfer contract\r\n    function createPropertyTransfer(\r\n        uint256 price,\r\n        string memory docName,\r\n        string memory docUrl,\r\n        string memory docDescription,\r\n        address payable owner,\r\n        address payable buyer\r\n    ) public payable returns (address newContract) {\r\n        Property p = new Property(\r\n            price,\r\n            docName,\r\n            docUrl,\r\n            docDescription,\r\n            owner,\r\n            buyer\r\n        );\r\n        address contractAddr = address(p);\r\n        propertyTransfers.push(contractAddr);\r\n        lastPropertyTransferAddress = contractAddr;\r\n        emit newPropertyTransferContract(contractAddr);\r\n        return contractAddr;\r\n    }\r\n}\r\n\r\ncontract Property {\r\n    event newPayment(address payerAddress, uint256 price, uint256 gas);\r\n\r\n    struct Doc {\r\n        uint256 price;\r\n        string name;\r\n        string url;\r\n        string description;\r\n        address payable owner;\r\n    }\r\n\r\n    address payable buyer;\r\n\r\n    mapping(address => bool) signedBy;\r\n    mapping(address => bool) isSigner;\r\n\r\n    Doc document;\r\n\r\n    constructor(\r\n        uint256 _price,\r\n        string memory _docName,\r\n        string memory _docUrl,\r\n        string memory _docDescription,\r\n        address payable _owner,\r\n        address payable _buyer\r\n    ) {\r\n        require(_price > 0, \"Price must be greater than zero.\");\r\n        require(_owner != _buyer, \"The owner can not be the buyer\");\r\n\r\n        document = Doc(_price, _docName, _docUrl, _docDescription, _owner);\r\n        buyer = _buyer;\r\n\r\n        // Addresses allowed to sign the document (owner and buyer only)\r\n        isSigner[document.owner] = true;\r\n        isSigner[buyer] = true;\r\n\r\n        // Owner creates the contract so it's signed by him in this moment\r\n        signedBy[document.owner] = true;\r\n    }\r\n\r\n    function setNewOwner(address _owner) internal {\r\n        document.owner = payable(_owner);\r\n    }\r\n\r\n    function getName() public view returns (string memory name) {\r\n        return document.name;\r\n    }\r\n\r\n    function getDescription() public view returns (string memory description) {\r\n        return document.description;\r\n    }\r\n\r\n    function getUrl() public view returns (string memory url) {\r\n        return document.url;\r\n    }\r\n\r\n    function getOwner() public view returns (address ownerAddress) {\r\n        return document.owner;\r\n    }\r\n\r\n    function getBuyer() public view returns (address buyerAddress) {\r\n        return buyer;\r\n    }\r\n\r\n    function getPrice() public view returns (uint256 price) {\r\n        return document.price;\r\n    }\r\n\r\n    function getDoc() public view returns (Doc memory) {\r\n        return document;\r\n    }\r\n\r\n    function concatenate(string memory a, string memory b)\r\n        public\r\n        pure\r\n        returns (string memory)\r\n    {\r\n        return string(abi.encodePacked(a, \" \", b));\r\n    }\r\n\r\n    function uintToStr(uint256 _i)\r\n        internal\r\n        pure\r\n        returns (string memory _uintAsString)\r\n    {\r\n        if (_i == 0) {\r\n            return \"0\";\r\n        }\r\n        uint256 j = _i;\r\n        uint256 len;\r\n        while (j != 0) {\r\n            len++;\r\n            j /= 10;\r\n        }\r\n        bytes memory bstr = new bytes(len);\r\n        uint256 k = len;\r\n        while (_i != 0) {\r\n            k = k - 1;\r\n            uint8 temp = (48 + uint8(_i - (_i / 10) * 10));\r\n            bytes1 b1 = bytes1(temp);\r\n            bstr[k] = b1;\r\n            _i /= 10;\r\n        }\r\n        return string(bstr);\r\n    }\r\n\r\n    function signAndPay() public payable {\r\n        emit newPayment(msg.sender, msg.value, gasleft());\r\n        require(isSigner[msg.sender], \"You are not a signatory.\");\r\n        require(!signedBy[msg.sender], \"You have already signed.\");\r\n        require(\r\n            msg.value == document.price,\r\n            concatenate(\r\n                \"Incorrect amount, please send the exact value for the property price\",\r\n                uintToStr(msg.value)\r\n            )\r\n        );\r\n\r\n        signedBy[msg.sender] = true;\r\n        document.owner.transfer(msg.value);\r\n        setNewOwner(msg.sender);\r\n    }\r\n}\r\n",
  "sourcePath": "D:\\Workspace\\Solidity\\contracts\\easy-property\\back\\contracts\\Property.sol",
  "compiler": {
    "name": "solc",
    "version": "0.8.14+commit.80d49f37.Emscripten.clang"
  },
  "schemaVersion": "3.4.4",
  "updatedAt": "2022-06-08T14:48:39.899Z",
  "devdoc": {
    "kind": "dev",
    "methods": {},
    "version": 1
  },
  "userdoc": {
    "kind": "user",
    "methods": {},
    "version": 1
  }
}