{
  "contractName": "Property",
  "abi": [
    {
      "inputs": [
        {
          "internalType": "uint256",
          "name": "_price",
          "type": "uint256"
        },
        {
          "internalType": "string",
          "name": "_docName",
          "type": "string"
        },
        {
          "internalType": "string",
          "name": "_docUrl",
          "type": "string"
        },
        {
          "internalType": "string",
          "name": "_docDescription",
          "type": "string"
        },
        {
          "internalType": "address payable",
          "name": "_buyer",
          "type": "address"
        }
      ],
      "stateMutability": "nonpayable",
      "type": "constructor"
    },
    {
      "inputs": [],
      "name": "getName",
      "outputs": [
        {
          "internalType": "string",
          "name": "name",
          "type": "string"
        }
      ],
      "stateMutability": "view",
      "type": "function"
    },
    {
      "inputs": [],
      "name": "getDescription",
      "outputs": [
        {
          "internalType": "string",
          "name": "description",
          "type": "string"
        }
      ],
      "stateMutability": "view",
      "type": "function"
    },
    {
      "inputs": [],
      "name": "getUrl",
      "outputs": [
        {
          "internalType": "string",
          "name": "url",
          "type": "string"
        }
      ],
      "stateMutability": "view",
      "type": "function"
    },
    {
      "inputs": [],
      "name": "getOwner",
      "outputs": [
        {
          "internalType": "address",
          "name": "ownerAddress",
          "type": "address"
        }
      ],
      "stateMutability": "view",
      "type": "function"
    },
    {
      "inputs": [],
      "name": "getPrice",
      "outputs": [
        {
          "internalType": "uint256",
          "name": "price",
          "type": "uint256"
        }
      ],
      "stateMutability": "view",
      "type": "function"
    },
    {
      "inputs": [],
      "name": "getDoc",
      "outputs": [
        {
          "components": [
            {
              "internalType": "uint256",
              "name": "price",
              "type": "uint256"
            },
            {
              "internalType": "string",
              "name": "name",
              "type": "string"
            },
            {
              "internalType": "string",
              "name": "url",
              "type": "string"
            },
            {
              "internalType": "string",
              "name": "description",
              "type": "string"
            },
            {
              "internalType": "address payable",
              "name": "owner",
              "type": "address"
            }
          ],
          "internalType": "struct Property.Doc",
          "name": "",
          "type": "tuple"
        }
      ],
      "stateMutability": "view",
      "type": "function"
    },
    {
      "inputs": [],
      "name": "signAndPay",
      "outputs": [],
      "stateMutability": "payable",
      "type": "function"
    }
  ],
  "bytecode": "0x60806040523480156200001157600080fd5b506040516200166638038062001666833981810160405281019062000037919062000688565b600085116200007d576040517f08c379a00000000000000000000000000000000000000000000000000000000081526004016200007490620007ce565b60405180910390fd5b8073ffffffffffffffffffffffffffffffffffffffff163373ffffffffffffffffffffffffffffffffffffffff1603620000ee576040517f08c379a0000000000000000000000000000000000000000000000000000000008152600401620000e59062000840565b60405180910390fd5b6040518060a001604052808681526020018581526020018481526020018381526020013373ffffffffffffffffffffffffffffffffffffffff168152506003600082015181600001556020820151816001019080519060200190620001559291906200039b565b506040820151816002019080519060200190620001749291906200039b565b506060820151816003019080519060200190620001939291906200039b565b5060808201518160040160006101000a81548173ffffffffffffffffffffffffffffffffffffffff021916908373ffffffffffffffffffffffffffffffffffffffff160217905550905050806000806101000a81548173ffffffffffffffffffffffffffffffffffffffff021916908373ffffffffffffffffffffffffffffffffffffffff160217905550600160026000600360040160009054906101000a900473ffffffffffffffffffffffffffffffffffffffff1673ffffffffffffffffffffffffffffffffffffffff1673ffffffffffffffffffffffffffffffffffffffff16815260200190815260200160002060006101000a81548160ff0219169083151502179055506001600260008060009054906101000a900473ffffffffffffffffffffffffffffffffffffffff1673ffffffffffffffffffffffffffffffffffffffff1673ffffffffffffffffffffffffffffffffffffffff16815260200190815260200160002060006101000a81548160ff0219169083151502179055506001806000600360040160009054906101000a900473ffffffffffffffffffffffffffffffffffffffff1673ffffffffffffffffffffffffffffffffffffffff1673ffffffffffffffffffffffffffffffffffffffff16815260200190815260200160002060006101000a81548160ff0219169083151502179055505050505050620008c6565b828054620003a99062000891565b90600052602060002090601f016020900481019282620003cd576000855562000419565b82601f10620003e857805160ff191683800117855562000419565b8280016001018555821562000419579182015b8281111562000418578251825591602001919060010190620003fb565b5b5090506200042891906200042c565b5090565b5b80821115620004475760008160009055506001016200042d565b5090565b6000604051905090565b600080fd5b600080fd5b6000819050919050565b62000474816200045f565b81146200048057600080fd5b50565b600081519050620004948162000469565b92915050565b600080fd5b600080fd5b6000601f19601f8301169050919050565b7f4e487b7100000000000000000000000000000000000000000000000000000000600052604160045260246000fd5b620004ef82620004a4565b810181811067ffffffffffffffff82111715620005115762000510620004b5565b5b80604052505050565b6000620005266200044b565b9050620005348282620004e4565b919050565b600067ffffffffffffffff821115620005575762000556620004b5565b5b6200056282620004a4565b9050602081019050919050565b60005b838110156200058f57808201518184015260208101905062000572565b838111156200059f576000848401525b50505050565b6000620005bc620005b68462000539565b6200051a565b905082815260208101848484011115620005db57620005da6200049f565b5b620005e88482856200056f565b509392505050565b600082601f8301126200060857620006076200049a565b5b81516200061a848260208601620005a5565b91505092915050565b600073ffffffffffffffffffffffffffffffffffffffff82169050919050565b6000620006508262000623565b9050919050565b620006628162000643565b81146200066e57600080fd5b50565b600081519050620006828162000657565b92915050565b600080600080600060a08688031215620006a757620006a662000455565b5b6000620006b78882890162000483565b955050602086015167ffffffffffffffff811115620006db57620006da6200045a565b5b620006e988828901620005f0565b945050604086015167ffffffffffffffff8111156200070d576200070c6200045a565b5b6200071b88828901620005f0565b935050606086015167ffffffffffffffff8111156200073f576200073e6200045a565b5b6200074d88828901620005f0565b9250506080620007608882890162000671565b9150509295509295909350565b600082825260208201905092915050565b7f5072696365206d7573742062652067726561746572207468616e207a65726f2e600082015250565b6000620007b66020836200076d565b9150620007c3826200077e565b602082019050919050565b60006020820190508181036000830152620007e981620007a7565b9050919050565b7f546865206f776e65722063616e206e6f74206265207468652062757965720000600082015250565b600062000828601e836200076d565b91506200083582620007f0565b602082019050919050565b600060208201905081810360008301526200085b8162000819565b9050919050565b7f4e487b7100000000000000000000000000000000000000000000000000000000600052602260045260246000fd5b60006002820490506001821680620008aa57607f821691505b602082108103620008c057620008bf62000862565b5b50919050565b610d9080620008d66000396000f3fe6080604052600436106100705760003560e01c806398d5fdca1161004e57806398d5fdca146100f6578063c584586714610121578063d6bd87271461014c578063d8af8e341461017757610070565b806317d7de7c146100755780631a092541146100a0578063893d20e8146100cb575b600080fd5b34801561008157600080fd5b5061008a610181565b604051610097919061090f565b60405180910390f35b3480156100ac57600080fd5b506100b5610216565b6040516100c2919061090f565b60405180910390f35b3480156100d757600080fd5b506100e06102aa565b6040516100ed9190610972565b60405180910390f35b34801561010257600080fd5b5061010b6102d7565b60405161011891906109a6565b60405180910390f35b34801561012d57600080fd5b506101366102e4565b6040516101439190610abf565b60405180910390f35b34801561015857600080fd5b50610161610514565b60405161016e919061090f565b60405180910390f35b61017f6105a9565b005b60606003600101805461019390610b10565b80601f01602080910402602001604051908101604052809291908181526020018280546101bf90610b10565b801561020c5780601f106101e15761010080835404028352916020019161020c565b820191906000526020600020905b8154815290600101906020018083116101ef57829003601f168201915b5050505050905090565b606060038001805461022790610b10565b80601f016020809104026020016040519081016040528092919081815260200182805461025390610b10565b80156102a05780601f10610275576101008083540402835291602001916102a0565b820191906000526020600020905b81548152906001019060200180831161028357829003601f168201915b5050505050905090565b6000600360040160009054906101000a900473ffffffffffffffffffffffffffffffffffffffff16905090565b6000600360000154905090565b6102ec610831565b60036040518060a00160405290816000820154815260200160018201805461031390610b10565b80601f016020809104026020016040519081016040528092919081815260200182805461033f90610b10565b801561038c5780601f106103615761010080835404028352916020019161038c565b820191906000526020600020905b81548152906001019060200180831161036f57829003601f168201915b505050505081526020016002820180546103a590610b10565b80601f01602080910402602001604051908101604052809291908181526020018280546103d190610b10565b801561041e5780601f106103f35761010080835404028352916020019161041e565b820191906000526020600020905b81548152906001019060200180831161040157829003601f168201915b5050505050815260200160038201805461043790610b10565b80601f016020809104026020016040519081016040528092919081815260200182805461046390610b10565b80156104b05780601f10610485576101008083540402835291602001916104b0565b820191906000526020600020905b81548152906001019060200180831161049357829003601f168201915b505050505081526020016004820160009054906101000a900473ffffffffffffffffffffffffffffffffffffffff1673ffffffffffffffffffffffffffffffffffffffff1673ffffffffffffffffffffffffffffffffffffffff1681525050905090565b60606003600201805461052690610b10565b80601f016020809104026020016040519081016040528092919081815260200182805461055290610b10565b801561059f5780601f106105745761010080835404028352916020019161059f565b820191906000526020600020905b81548152906001019060200180831161058257829003601f168201915b5050505050905090565b600260003373ffffffffffffffffffffffffffffffffffffffff1673ffffffffffffffffffffffffffffffffffffffff16815260200190815260200160002060009054906101000a900460ff16610635576040517f08c379a000000000000000000000000000000000000000000000000000000000815260040161062c90610b8d565b60405180910390fd5b600160003373ffffffffffffffffffffffffffffffffffffffff1673ffffffffffffffffffffffffffffffffffffffff16815260200190815260200160002060009054906101000a900460ff16156106c2576040517f08c379a00000000000000000000000000000000000000000000000000000000081526004016106b990610bf9565b60405180910390fd5b670de0b6b3a76400006003600001546106db9190610c48565b341461071c576040517f08c379a000000000000000000000000000000000000000000000000000000000815260040161071390610d3a565b60405180910390fd5b60018060003373ffffffffffffffffffffffffffffffffffffffff1673ffffffffffffffffffffffffffffffffffffffff16815260200190815260200160002060006101000a81548160ff021916908315150217905550600360040160009054906101000a900473ffffffffffffffffffffffffffffffffffffffff1673ffffffffffffffffffffffffffffffffffffffff166108fc349081150290604051600060405180830381858888f193505050501580156107de573d6000803e3d6000fd5b506107e8336107ea565b565b80600360040160006101000a81548173ffffffffffffffffffffffffffffffffffffffff021916908373ffffffffffffffffffffffffffffffffffffffff16021790555050565b6040518060a0016040528060008152602001606081526020016060815260200160608152602001600073ffffffffffffffffffffffffffffffffffffffff1681525090565b600081519050919050565b600082825260208201905092915050565b60005b838110156108b0578082015181840152602081019050610895565b838111156108bf576000848401525b50505050565b6000601f19601f8301169050919050565b60006108e182610876565b6108eb8185610881565b93506108fb818560208601610892565b610904816108c5565b840191505092915050565b6000602082019050818103600083015261092981846108d6565b905092915050565b600073ffffffffffffffffffffffffffffffffffffffff82169050919050565b600061095c82610931565b9050919050565b61096c81610951565b82525050565b60006020820190506109876000830184610963565b92915050565b6000819050919050565b6109a08161098d565b82525050565b60006020820190506109bb6000830184610997565b92915050565b6109ca8161098d565b82525050565b600082825260208201905092915050565b60006109ec82610876565b6109f681856109d0565b9350610a06818560208601610892565b610a0f816108c5565b840191505092915050565b6000610a2582610931565b9050919050565b610a3581610a1a565b82525050565b600060a083016000830151610a5360008601826109c1565b5060208301518482036020860152610a6b82826109e1565b91505060408301518482036040860152610a8582826109e1565b91505060608301518482036060860152610a9f82826109e1565b9150506080830151610ab46080860182610a2c565b508091505092915050565b60006020820190508181036000830152610ad98184610a3b565b905092915050565b7f4e487b7100000000000000000000000000000000000000000000000000000000600052602260045260246000fd5b60006002820490506001821680610b2857607f821691505b602082108103610b3b57610b3a610ae1565b5b50919050565b7f596f7520617265206e6f742061207369676e61746f72792e0000000000000000600082015250565b6000610b77601883610881565b9150610b8282610b41565b602082019050919050565b60006020820190508181036000830152610ba681610b6a565b9050919050565b7f596f75206861766520616c7265616479207369676e65642e0000000000000000600082015250565b6000610be3601883610881565b9150610bee82610bad565b602082019050919050565b60006020820190508181036000830152610c1281610bd6565b9050919050565b7f4e487b7100000000000000000000000000000000000000000000000000000000600052601160045260246000fd5b6000610c538261098d565b9150610c5e8361098d565b9250817fffffffffffffffffffffffffffffffffffffffffffffffffffffffffffffffff0483118215151615610c9757610c96610c19565b5b828202905092915050565b7f496e636f727265637420616d6f756e742c20706c656173652073656e6420746860008201527f652065786163742076616c756520666f72207468652070726f7065727479207060208201527f7269636500000000000000000000000000000000000000000000000000000000604082015250565b6000610d24604483610881565b9150610d2f82610ca2565b606082019050919050565b60006020820190508181036000830152610d5381610d17565b905091905056fea26469706673582212203a416f8637c016f45d1be14b5ebe7de3a6a51e3c11509c41d73d49b7161c09a664736f6c634300080e0033",
  "immutableReferences": {},
  "source": "// SPDX-License-Identifier: MIT\r\npragma solidity ^0.8.7;\r\n\r\ncontract TransferPropertyFactory {\r\n    address[] public propertyTransfers;\r\n    address public lastPropertyTransferAddress;\r\n\r\n    event newPropertyTransferContract(address contractAddress);\r\n\r\n    constructor() {}\r\n\r\n    // Get the total of deployed contracts\r\n    function getPropertyTransfersCount()\r\n        public\r\n        view\r\n        returns (uint256 contractCount)\r\n    {\r\n        return propertyTransfers.length;\r\n    }\r\n\r\n    // Deploy a new property transfer contract\r\n    function createPropertyTransfer(\r\n        uint256 price,\r\n        string memory docName,\r\n        string memory docUrl,\r\n        string memory docDescription,\r\n        address payable buyer\r\n    ) public payable returns (address newContract) {\r\n        Property p = new Property(\r\n            price,\r\n            docName,\r\n            docUrl,\r\n            docDescription,\r\n            buyer\r\n        );\r\n        address contractAddr = address(p);\r\n        propertyTransfers.push(contractAddr);\r\n        lastPropertyTransferAddress = contractAddr;\r\n        emit newPropertyTransferContract(contractAddr);\r\n        return contractAddr;\r\n    }\r\n\r\n    // Tell me a position and I will tell you its address\r\n    function getPropertyTransfer(uint256 pos)\r\n        public\r\n        view\r\n        returns (address contractAddress)\r\n    {\r\n        return address(propertyTransfers[pos]);\r\n    }\r\n}\r\n\r\ncontract Property {\r\n    struct Doc {\r\n        uint256 price;\r\n        string name;\r\n        string url;\r\n        string description;\r\n        address payable owner;\r\n    }\r\n\r\n    address payable buyer;\r\n\r\n    mapping(address => bool) signedBy;\r\n    mapping(address => bool) isSigner;\r\n\r\n    Doc document;\r\n\r\n    constructor(\r\n        uint256 _price,\r\n        string memory _docName,\r\n        string memory _docUrl,\r\n        string memory _docDescription,\r\n        address payable _buyer\r\n    ) {\r\n        require(_price > 0, \"Price must be greater than zero.\");\r\n        require(\r\n            payable(msg.sender) != _buyer,\r\n            \"The owner can not be the buyer\"\r\n        );\r\n\r\n        document = Doc(\r\n            _price,\r\n            _docName,\r\n            _docUrl,\r\n            _docDescription,\r\n            payable(msg.sender)\r\n        );\r\n        buyer = _buyer;\r\n\r\n        // Addresses allowed to sign the document (owner and buyer only)\r\n        isSigner[document.owner] = true;\r\n        isSigner[buyer] = true;\r\n\r\n        // Owner creates the contract so it's signed by him in this moment\r\n        signedBy[document.owner] = true;\r\n    }\r\n\r\n    function setNewOwner(address _owner) internal {\r\n        document.owner = payable(_owner);\r\n    }\r\n\r\n    function getName() public view returns (string memory name) {\r\n        return document.name;\r\n    }\r\n\r\n    function getDescription() public view returns (string memory description) {\r\n        return document.description;\r\n    }\r\n\r\n    function getUrl() public view returns (string memory url) {\r\n        return document.url;\r\n    }\r\n\r\n    function getOwner() public view returns (address ownerAddress) {\r\n        return document.owner;\r\n    }\r\n\r\n    function getPrice() public view returns (uint256 price) {\r\n        return document.price;\r\n    }\r\n\r\n    function getDoc() public view returns (Doc memory) {\r\n        return document;\r\n    }\r\n\r\n    function signAndPay() public payable {\r\n        require(isSigner[msg.sender], \"You are not a signatory.\");\r\n        require(!signedBy[msg.sender], \"You have already signed.\");\r\n        require(\r\n            msg.value == (document.price * 1e18),\r\n            \"Incorrect amount, please send the exact value for the property price\"\r\n        );\r\n\r\n        signedBy[msg.sender] = true;\r\n        document.owner.transfer(msg.value);\r\n        setNewOwner(msg.sender);\r\n    }\r\n}\r\n",
  "sourcePath": "D:\\Workspace\\Solidity\\contracts\\easy-property\\back\\contracts\\Property.sol",
  "compiler": {
    "name": "solc",
    "version": "0.8.14+commit.80d49f37.Emscripten.clang"
  },
  "schemaVersion": "3.4.4",
  "updatedAt": "2022-06-08T04:42:39.453Z",
  "devdoc": {
    "kind": "dev",
    "methods": {},
    "version": 1
  },
  "userdoc": {
    "kind": "user",
    "methods": {},
    "version": 1
  }
}