{
  "contractName": "TransferPropertyFactory",
  "abi": [
    {
      "inputs": [],
      "stateMutability": "nonpayable",
      "type": "constructor"
    },
    {
      "anonymous": false,
      "inputs": [
        {
          "indexed": false,
          "internalType": "address",
          "name": "contractAddress",
          "type": "address"
        }
      ],
      "name": "newPropertyTransferContract",
      "type": "event"
    },
    {
      "inputs": [],
      "name": "lastPropertyTransferAddress",
      "outputs": [
        {
          "internalType": "address",
          "name": "",
          "type": "address"
        }
      ],
      "stateMutability": "view",
      "type": "function",
      "constant": true
    },
    {
      "inputs": [
        {
          "internalType": "uint256",
          "name": "",
          "type": "uint256"
        }
      ],
      "name": "propertyTransfers",
      "outputs": [
        {
          "internalType": "address",
          "name": "",
          "type": "address"
        }
      ],
      "stateMutability": "view",
      "type": "function",
      "constant": true
    },
    {
      "inputs": [],
      "name": "getPropertyTransfersCount",
      "outputs": [
        {
          "internalType": "uint256",
          "name": "contractCount",
          "type": "uint256"
        }
      ],
      "stateMutability": "view",
      "type": "function",
      "constant": true
    },
    {
      "inputs": [
        {
          "internalType": "uint256",
          "name": "pos",
          "type": "uint256"
        }
      ],
      "name": "getPropertyTransfer",
      "outputs": [
        {
          "internalType": "address",
          "name": "contractAddress",
          "type": "address"
        }
      ],
      "stateMutability": "view",
      "type": "function",
      "constant": true
    },
    {
      "inputs": [
        {
          "internalType": "uint256",
          "name": "price",
          "type": "uint256"
        },
        {
          "internalType": "string",
          "name": "docName",
          "type": "string"
        },
        {
          "internalType": "string",
          "name": "docUrl",
          "type": "string"
        },
        {
          "internalType": "string",
          "name": "docDescription",
          "type": "string"
        },
        {
          "internalType": "address payable",
          "name": "owner",
          "type": "address"
        },
        {
          "internalType": "address payable",
          "name": "buyer",
          "type": "address"
        }
      ],
      "name": "createPropertyTransfer",
      "outputs": [
        {
          "internalType": "address",
          "name": "newContract",
          "type": "address"
        }
      ],
      "stateMutability": "payable",
      "type": "function",
      "payable": true
    }
  ],
  "bytecode": "0x608060405234801561001057600080fd5b5061218a806100206000396000f3fe608060405260043610620000505760003560e01c806360136cff14620000555780638898a14c146200009957806398f35d1514620000cf578063c6de375a14620000ff578063ec952071146200012f575b600080fd5b3480156200006257600080fd5b506200008160048036038101906200007b9190620003c5565b62000173565b6040516200009091906200043c565b60405180910390f35b620000b76004803603810190620000b1919062000600565b620001bd565b604051620000c691906200043c565b60405180910390f35b348015620000dc57600080fd5b50620000e7620002f6565b604051620000f691906200043c565b60405180910390f35b3480156200010c57600080fd5b50620001176200031c565b6040516200012691906200070a565b60405180910390f35b3480156200013c57600080fd5b506200015b6004803603810190620001559190620003c5565b62000328565b6040516200016a91906200043c565b60405180910390f35b60008082815481106200018b576200018a62000727565b5b9060005260206000200160009054906101000a900473ffffffffffffffffffffffffffffffffffffffff169050919050565b600080878787878787604051620001d49062000368565b620001e596959493929190620007fa565b604051809103906000f08015801562000202573d6000803e3d6000fd5b50905060008190506000819080600181540180825580915050600190039060005260206000200160009091909190916101000a81548173ffffffffffffffffffffffffffffffffffffffff021916908373ffffffffffffffffffffffffffffffffffffffff16021790555080600160006101000a81548173ffffffffffffffffffffffffffffffffffffffff021916908373ffffffffffffffffffffffffffffffffffffffff1602179055507f46a26b34b76cfb65bc8e4b612f9a0ccabb0988a2f2ed956ba1a7de29c243df0b81604051620002df91906200043c565b60405180910390a180925050509695505050505050565b600160009054906101000a900473ffffffffffffffffffffffffffffffffffffffff1681565b60008080549050905090565b600081815481106200033957600080fd5b906000526020600020016000915054906101000a900473ffffffffffffffffffffffffffffffffffffffff1681565b6118d8806200087d83390190565b6000604051905090565b600080fd5b600080fd5b6000819050919050565b6200039f816200038a565b8114620003ab57600080fd5b50565b600081359050620003bf8162000394565b92915050565b600060208284031215620003de57620003dd62000380565b5b6000620003ee84828501620003ae565b91505092915050565b600073ffffffffffffffffffffffffffffffffffffffff82169050919050565b60006200042482620003f7565b9050919050565b620004368162000417565b82525050565b60006020820190506200045360008301846200042b565b92915050565b600080fd5b600080fd5b6000601f19601f8301169050919050565b7f4e487b7100000000000000000000000000000000000000000000000000000000600052604160045260246000fd5b620004ae8262000463565b810181811067ffffffffffffffff82111715620004d057620004cf62000474565b5b80604052505050565b6000620004e562000376565b9050620004f38282620004a3565b919050565b600067ffffffffffffffff82111562000516576200051562000474565b5b620005218262000463565b9050602081019050919050565b82818337600083830152505050565b6000620005546200054e84620004f8565b620004d9565b9050828152602081018484840111156200057357620005726200045e565b5b620005808482856200052e565b509392505050565b600082601f830112620005a0576200059f62000459565b5b8135620005b28482602086016200053d565b91505092915050565b6000620005c882620003f7565b9050919050565b620005da81620005bb565b8114620005e657600080fd5b50565b600081359050620005fa81620005cf565b92915050565b60008060008060008060c0878903121562000620576200061f62000380565b5b60006200063089828a01620003ae565b965050602087013567ffffffffffffffff81111562000654576200065362000385565b5b6200066289828a0162000588565b955050604087013567ffffffffffffffff81111562000686576200068562000385565b5b6200069489828a0162000588565b945050606087013567ffffffffffffffff811115620006b857620006b762000385565b5b620006c689828a0162000588565b9350506080620006d989828a01620005e9565b92505060a0620006ec89828a01620005e9565b9150509295509295509295565b62000704816200038a565b82525050565b6000602082019050620007216000830184620006f9565b92915050565b7f4e487b7100000000000000000000000000000000000000000000000000000000600052603260045260246000fd5b600081519050919050565b600082825260208201905092915050565b60005b838110156200079257808201518184015260208101905062000775565b83811115620007a2576000848401525b50505050565b6000620007b58262000756565b620007c1818562000761565b9350620007d381856020860162000772565b620007de8162000463565b840191505092915050565b620007f481620005bb565b82525050565b600060c082019050620008116000830189620006f9565b8181036020830152620008258188620007a8565b905081810360408301526200083b8187620007a8565b90508181036060830152620008518186620007a8565b9050620008626080830185620007e9565b6200087160a0830184620007e9565b97965050505050505056fe60806040523480156200001157600080fd5b50604051620018d8380380620018d8833981810160405281019062000037919062000661565b600086116200007d576040517f08c379a00000000000000000000000000000000000000000000000000000000081526004016200007490620007bb565b60405180910390fd5b8073ffffffffffffffffffffffffffffffffffffffff168273ffffffffffffffffffffffffffffffffffffffff1603620000ee576040517f08c379a0000000000000000000000000000000000000000000000000000000008152600401620000e5906200082d565b60405180910390fd5b60405180608001604052808781526020018681526020018581526020018481525060046000820151816000015560208201518160010190805190602001906200013992919062000374565b5060408201518160020190805190602001906200015892919062000374565b5060608201518160030190805190602001906200017792919062000374565b50905050816000806101000a81548173ffffffffffffffffffffffffffffffffffffffff021916908373ffffffffffffffffffffffffffffffffffffffff16021790555080600160006101000a81548173ffffffffffffffffffffffffffffffffffffffff021916908373ffffffffffffffffffffffffffffffffffffffff1602179055506001600360008060009054906101000a900473ffffffffffffffffffffffffffffffffffffffff1673ffffffffffffffffffffffffffffffffffffffff1673ffffffffffffffffffffffffffffffffffffffff16815260200190815260200160002060006101000a81548160ff021916908315150217905550600160036000600160009054906101000a900473ffffffffffffffffffffffffffffffffffffffff1673ffffffffffffffffffffffffffffffffffffffff1673ffffffffffffffffffffffffffffffffffffffff16815260200190815260200160002060006101000a81548160ff0219169083151502179055506001600260008060009054906101000a900473ffffffffffffffffffffffffffffffffffffffff1673ffffffffffffffffffffffffffffffffffffffff1673ffffffffffffffffffffffffffffffffffffffff16815260200190815260200160002060006101000a81548160ff021916908315150217905550505050505050620008b3565b82805462000382906200087e565b90600052602060002090601f016020900481019282620003a65760008555620003f2565b82601f10620003c157805160ff1916838001178555620003f2565b82800160010185558215620003f2579182015b82811115620003f1578251825591602001919060010190620003d4565b5b50905062000401919062000405565b5090565b5b808211156200042057600081600090555060010162000406565b5090565b6000604051905090565b600080fd5b600080fd5b6000819050919050565b6200044d8162000438565b81146200045957600080fd5b50565b6000815190506200046d8162000442565b92915050565b600080fd5b600080fd5b6000601f19601f8301169050919050565b7f4e487b7100000000000000000000000000000000000000000000000000000000600052604160045260246000fd5b620004c8826200047d565b810181811067ffffffffffffffff82111715620004ea57620004e96200048e565b5b80604052505050565b6000620004ff62000424565b90506200050d8282620004bd565b919050565b600067ffffffffffffffff82111562000530576200052f6200048e565b5b6200053b826200047d565b9050602081019050919050565b60005b83811015620005685780820151818401526020810190506200054b565b8381111562000578576000848401525b50505050565b6000620005956200058f8462000512565b620004f3565b905082815260208101848484011115620005b457620005b362000478565b5b620005c184828562000548565b509392505050565b600082601f830112620005e157620005e062000473565b5b8151620005f38482602086016200057e565b91505092915050565b600073ffffffffffffffffffffffffffffffffffffffff82169050919050565b60006200062982620005fc565b9050919050565b6200063b816200061c565b81146200064757600080fd5b50565b6000815190506200065b8162000630565b92915050565b60008060008060008060c087890312156200068157620006806200042e565b5b60006200069189828a016200045c565b965050602087015167ffffffffffffffff811115620006b557620006b462000433565b5b620006c389828a01620005c9565b955050604087015167ffffffffffffffff811115620006e757620006e662000433565b5b620006f589828a01620005c9565b945050606087015167ffffffffffffffff81111562000719576200071862000433565b5b6200072789828a01620005c9565b93505060806200073a89828a016200064a565b92505060a06200074d89828a016200064a565b9150509295509295509295565b600082825260208201905092915050565b7f5072696365206d7573742062652067726561746572207468616e207a65726f2e600082015250565b6000620007a36020836200075a565b9150620007b0826200076b565b602082019050919050565b60006020820190508181036000830152620007d68162000794565b9050919050565b7f546865206f776e65722063616e206e6f74206265207468652062757965720000600082015250565b600062000815601e836200075a565b91506200082282620007dd565b602082019050919050565b60006020820190508181036000830152620008488162000806565b9050919050565b7f4e487b7100000000000000000000000000000000000000000000000000000000600052602260045260246000fd5b600060028204905060018216806200089757607f821691505b602082108103620008ad57620008ac6200084f565b5b50919050565b61101580620008c36000396000f3fe60806040526004361061003f5760003560e01c8063603daf9a14610044578063893d20e81461006f578063c58458671461009a578063d8af8e34146100c5575b600080fd5b34801561005057600080fd5b506100596100cf565b6040516100669190610823565b60405180910390f35b34801561007b57600080fd5b506100846100f9565b6040516100919190610823565b60405180910390f35b3480156100a657600080fd5b506100af610122565b6040516100bc9190610961565b60405180910390f35b6100cd6102fc565b005b6000600160009054906101000a900473ffffffffffffffffffffffffffffffffffffffff16905090565b60008060009054906101000a900473ffffffffffffffffffffffffffffffffffffffff16905090565b61012a6107ba565b600460405180608001604052908160008201548152602001600182018054610151906109b2565b80601f016020809104026020016040519081016040528092919081815260200182805461017d906109b2565b80156101ca5780601f1061019f576101008083540402835291602001916101ca565b820191906000526020600020905b8154815290600101906020018083116101ad57829003601f168201915b505050505081526020016002820180546101e3906109b2565b80601f016020809104026020016040519081016040528092919081815260200182805461020f906109b2565b801561025c5780601f106102315761010080835404028352916020019161025c565b820191906000526020600020905b81548152906001019060200180831161023f57829003601f168201915b50505050508152602001600382018054610275906109b2565b80601f01602080910402602001604051908101604052809291908181526020018280546102a1906109b2565b80156102ee5780601f106102c3576101008083540402835291602001916102ee565b820191906000526020600020905b8154815290600101906020018083116102d157829003601f168201915b505050505081525050905090565b7f3d3a7037b3034605b3221caf38a32984eea10a17fd8da02a16a15a99c25c123033345a60405161032f939291906109f2565b60405180910390a1600360003373ffffffffffffffffffffffffffffffffffffffff1673ffffffffffffffffffffffffffffffffffffffff16815260200190815260200160002060009054906101000a900460ff166103c3576040517f08c379a00000000000000000000000000000000000000000000000000000000081526004016103ba90610a86565b60405180910390fd5b600260003373ffffffffffffffffffffffffffffffffffffffff1673ffffffffffffffffffffffffffffffffffffffff16815260200190815260200160002060009054906101000a900460ff1615610450576040517f08c379a000000000000000000000000000000000000000000000000000000000815260040161044790610af2565b60405180910390fd5b600073__Helper________________________________63266001d3610475346105ef565b6040518263ffffffff1660e01b81526004016104919190610bf4565b600060405180830381865af41580156104ae573d6000803e3d6000fd5b505050506040513d6000823e3d601f19601f820116820180604052508101906104d79190610d63565b905060046000015434148190610523576040517f08c379a000000000000000000000000000000000000000000000000000000000815260040161051a9190610de5565b60405180910390fd5b506001600260003373ffffffffffffffffffffffffffffffffffffffff1673ffffffffffffffffffffffffffffffffffffffff16815260200190815260200160002060006101000a81548160ff02191690831515021790555060008054906101000a900473ffffffffffffffffffffffffffffffffffffffff1673ffffffffffffffffffffffffffffffffffffffff166108fc349081150290604051600060405180830381858888f193505050501580156105e2573d6000803e3d6000fd5b506105ec33610777565b50565b606060008203610636576040518060400160405280600181526020017f30000000000000000000000000000000000000000000000000000000000000008152509050610772565b600082905060005b6000821461066857808061065190610e36565b915050600a826106619190610ead565b915061063e565b60008167ffffffffffffffff81111561068457610683610c47565b5b6040519080825280601f01601f1916602001820160405280156106b65781602001600182028036833780820191505090505b50905060008290505b6000861461076a576001816106d49190610ede565b90506000600a80886106e69190610ead565b6106f09190610f12565b876106fb9190610ede565b60306107079190610f79565b905060008160f81b90508084848151811061072557610724610fb0565b5b60200101907effffffffffffffffffffffffffffffffffffffffffffffffffffffffffffff1916908160001a905350600a886107619190610ead565b975050506106bf565b819450505050505b919050565b806000806101000a81548173ffffffffffffffffffffffffffffffffffffffff021916908373ffffffffffffffffffffffffffffffffffffffff16021790555050565b6040518060800160405280600081526020016060815260200160608152602001606081525090565b600073ffffffffffffffffffffffffffffffffffffffff82169050919050565b600061080d826107e2565b9050919050565b61081d81610802565b82525050565b60006020820190506108386000830184610814565b92915050565b6000819050919050565b6108518161083e565b82525050565b600081519050919050565b600082825260208201905092915050565b60005b83811015610891578082015181840152602081019050610876565b838111156108a0576000848401525b50505050565b6000601f19601f8301169050919050565b60006108c282610857565b6108cc8185610862565b93506108dc818560208601610873565b6108e5816108a6565b840191505092915050565b60006080830160008301516109086000860182610848565b506020830151848203602086015261092082826108b7565b9150506040830151848203604086015261093a82826108b7565b9150506060830151848203606086015261095482826108b7565b9150508091505092915050565b6000602082019050818103600083015261097b81846108f0565b905092915050565b7f4e487b7100000000000000000000000000000000000000000000000000000000600052602260045260246000fd5b600060028204905060018216806109ca57607f821691505b6020821081036109dd576109dc610983565b5b50919050565b6109ec8161083e565b82525050565b6000606082019050610a076000830186610814565b610a1460208301856109e3565b610a2160408301846109e3565b949350505050565b600082825260208201905092915050565b7f596f7520617265206e6f742061207369676e61746f72792e0000000000000000600082015250565b6000610a70601883610a29565b9150610a7b82610a3a565b602082019050919050565b60006020820190508181036000830152610a9f81610a63565b9050919050565b7f596f75206861766520616c7265616479207369676e65642e0000000000000000600082015250565b6000610adc601883610a29565b9150610ae782610aa6565b602082019050919050565b60006020820190508181036000830152610b0b81610acf565b9050919050565b600082825260208201905092915050565b7f496e636f727265637420616d6f756e742c20706c656173652073656e6420746860008201527f652065786163742076616c756520666f72207468652070726f7065727479207060208201527f7269636500000000000000000000000000000000000000000000000000000000604082015250565b6000610ba5604483610b12565b9150610bb082610b23565b606082019050919050565b6000610bc682610857565b610bd08185610b12565b9350610be0818560208601610873565b610be9816108a6565b840191505092915050565b60006040820190508181036000830152610c0d81610b98565b90508181036020830152610c218184610bbb565b905092915050565b6000604051905090565b600080fd5b600080fd5b600080fd5b600080fd5b7f4e487b7100000000000000000000000000000000000000000000000000000000600052604160045260246000fd5b610c7f826108a6565b810181811067ffffffffffffffff82111715610c9e57610c9d610c47565b5b80604052505050565b6000610cb1610c29565b9050610cbd8282610c76565b919050565b600067ffffffffffffffff821115610cdd57610cdc610c47565b5b610ce6826108a6565b9050602081019050919050565b6000610d06610d0184610cc2565b610ca7565b905082815260208101848484011115610d2257610d21610c42565b5b610d2d848285610873565b509392505050565b600082601f830112610d4a57610d49610c3d565b5b8151610d5a848260208601610cf3565b91505092915050565b600060208284031215610d7957610d78610c33565b5b600082015167ffffffffffffffff811115610d9757610d96610c38565b5b610da384828501610d35565b91505092915050565b6000610db782610857565b610dc18185610a29565b9350610dd1818560208601610873565b610dda816108a6565b840191505092915050565b60006020820190508181036000830152610dff8184610dac565b905092915050565b7f4e487b7100000000000000000000000000000000000000000000000000000000600052601160045260246000fd5b6000610e418261083e565b91507fffffffffffffffffffffffffffffffffffffffffffffffffffffffffffffffff8203610e7357610e72610e07565b5b600182019050919050565b7f4e487b7100000000000000000000000000000000000000000000000000000000600052601260045260246000fd5b6000610eb88261083e565b9150610ec38361083e565b925082610ed357610ed2610e7e565b5b828204905092915050565b6000610ee98261083e565b9150610ef48361083e565b925082821015610f0757610f06610e07565b5b828203905092915050565b6000610f1d8261083e565b9150610f288361083e565b9250817fffffffffffffffffffffffffffffffffffffffffffffffffffffffffffffffff0483118215151615610f6157610f60610e07565b5b828202905092915050565b600060ff82169050919050565b6000610f8482610f6c565b9150610f8f83610f6c565b92508260ff03821115610fa557610fa4610e07565b5b828201905092915050565b7f4e487b7100000000000000000000000000000000000000000000000000000000600052603260045260246000fdfea2646970667358221220e6249501d865e0b76a06bc04b943d69ce0c627233e396e87e2f609f924c3836464736f6c634300080e0033a26469706673582212200853089b1f1b0da034af7c559f34fe30aa5d6d9a7c0a783d8aac07e0aed4723164736f6c634300080e0033",
  "immutableReferences": {},
  "source": "// SPDX-License-Identifier: MIT\r\npragma solidity ^0.8.7;\r\n\r\nimport {Helper} from \"./HelperLibrary.sol\";\r\n\r\ncontract TransferPropertyFactory {\r\n    address[] public propertyTransfers;\r\n    address public lastPropertyTransferAddress;\r\n\r\n    event newPropertyTransferContract(address contractAddress);\r\n\r\n    constructor() {}\r\n\r\n    // Get the total of deployed contracts\r\n    function getPropertyTransfersCount()\r\n        public\r\n        view\r\n        returns (uint256 contractCount)\r\n    {\r\n        return propertyTransfers.length;\r\n    }\r\n\r\n    // Tell me a position and I will tell you its address\r\n    function getPropertyTransfer(uint256 pos)\r\n        public\r\n        view\r\n        returns (address contractAddress)\r\n    {\r\n        return address(propertyTransfers[pos]);\r\n    }\r\n\r\n    // Deploy a new property transfer contract\r\n    function createPropertyTransfer(\r\n        uint256 price,\r\n        string memory docName,\r\n        string memory docUrl,\r\n        string memory docDescription,\r\n        address payable owner,\r\n        address payable buyer\r\n    ) public payable returns (address newContract) {\r\n        TransferProperty p = new TransferProperty(\r\n            price,\r\n            docName,\r\n            docUrl,\r\n            docDescription,\r\n            owner,\r\n            buyer\r\n        );\r\n        address contractAddr = address(p);\r\n        propertyTransfers.push(contractAddr);\r\n        lastPropertyTransferAddress = contractAddr;\r\n        emit newPropertyTransferContract(contractAddr);\r\n        return contractAddr;\r\n    }\r\n}\r\n\r\ncontract TransferProperty {\r\n    event newPayment(address payerAddress, uint256 price, uint256 gas);\r\n\r\n    struct Doc {\r\n        uint256 price;\r\n        string name;\r\n        string url;\r\n        string description;\r\n    }\r\n\r\n    address payable private owner;\r\n    address payable private buyer;\r\n\r\n    mapping(address => bool) signedBy;\r\n    mapping(address => bool) isSigner;\r\n\r\n    Doc private document;\r\n\r\n    constructor(\r\n        uint256 _price,\r\n        string memory _docName,\r\n        string memory _docUrl,\r\n        string memory _docDescription,\r\n        address payable _owner,\r\n        address payable _buyer\r\n    ) {\r\n        require(_price > 0, \"Price must be greater than zero.\");\r\n        require(_owner != _buyer, \"The owner can not be the buyer\");\r\n\r\n        document = Doc(_price, _docName, _docUrl, _docDescription);\r\n        owner = _owner;\r\n        buyer = _buyer;\r\n\r\n        // Addresses allowed to sign the document (owner and buyer only)\r\n        isSigner[owner] = true;\r\n        isSigner[buyer] = true;\r\n\r\n        // Owner creates the contract so it's signed by him in this moment\r\n        signedBy[owner] = true;\r\n    }\r\n\r\n    function setNewOwner(address _owner) internal {\r\n        owner = payable(_owner);\r\n    }\r\n\r\n    function getDoc() public view returns (Doc memory) {\r\n        return document;\r\n    }\r\n\r\n    function getOwner() public view returns (address ownerAddress) {\r\n        return owner;\r\n    }\r\n\r\n    function getBuyer() public view returns (address buyerAddress) {\r\n        return buyer;\r\n    }\r\n\r\n    function signAndPay() public payable {\r\n        emit newPayment(msg.sender, msg.value, gasleft());\r\n        require(isSigner[msg.sender], \"You are not a signatory.\");\r\n        require(!signedBy[msg.sender], \"You have already signed.\");\r\n\r\n        string memory incorrectAmountMsg = Helper.concatenate(\r\n            \"Incorrect amount, please send the exact value for the property price\",\r\n            Helper.uintToStr(msg.value)\r\n        );\r\n\r\n        require(msg.value == document.price, incorrectAmountMsg);\r\n\r\n        signedBy[msg.sender] = true;\r\n        owner.transfer(msg.value);\r\n        setNewOwner(msg.sender);\r\n    }\r\n}\r\n",
  "sourcePath": "D:\\Workspace\\Solidity\\contracts\\easy-property\\back\\contracts\\PropertyContract.sol",
  "compiler": {
    "name": "solc",
    "version": "0.8.14+commit.80d49f37.Emscripten.clang"
  },
  "schemaVersion": "3.4.4",
  "updatedAt": "2022-06-11T15:34:00.037Z",
  "networkType": "ethereum",
  "devdoc": {
    "kind": "dev",
    "methods": {},
    "version": 1
  },
  "userdoc": {
    "kind": "user",
    "methods": {},
    "version": 1
  }
}